:100000000C94FE030C9476120C94A7120C94D81244
:100010000C9409130C943A130C946B130C949C13CA
:100020000C94CD130C942A040C942A040C942A04E6
:100030000C942A040C942A040C942A040C942A0488
:100040000C942A040C942A040C942A040C942A0478
:100050000C942A040C942A040C942A040C94E9109D
:100060000C942A040C9404170C9430180C942A0451
:100070000C942A040C942A040C942A040C942A0448
:100080000C942A040C942A040C942A040C942A0438
:100090000C943D170C946F180C942A040C942A04A9
:1000A0000C942A040C942A040C942A040C942A0418
:1000B0000C942A040C942A040C942A040C942A0408
:1000C0000C942A040C942A040C942A040C94761799
:1000D0000C94AE180C942A040C94AF170C94ED18E1
:1000E0000C942A0400002100240027002A002D007F
:1000F0003000330001010000040107010A01000083
:100100002200250028002B002E00310034000201BF
:100110000000050108010B0100002000230026005B
:1001200029002C002F00320000010000030106010D
:10013000090105050505070508080808020202026D
:100140000A0A080804040404010101010101010173
:100150000303030303030303040707070C0C0C0C3E
:100160000C0C0C0C02020202060606060606060627
:100170000B0B0B0B0B0B0B0B0102102020080810B4
:100180002040102040800201020108040201010207
:1001900004081020408080402010080402018004E0
:1001A000020180402010080402010804020101023B
:1001B0000408102040800102040810204080000044
:1001C000090A02080B0C0D070603040100000000D9
:1001D000000000000000000000000000000000001F
:1001E0000000000000000000000011100F000000DF
:1001F00000000000000000000000000000000000FF
:100200000000000000000000003E5B4F5B3E3E6BC4
:100210004F6B3E1C3E7C3E1C183C7E3C181C577DA0
:10022000571C1C5E7F5E1C00183C1800FFE7C3E7EC
:10023000FF0018241800FFE7DBE7FF30483A060EFE
:100240002629792926407F050507407F05253F5A45
:100250003CE73C5A7F3E1C1C08081C1C3E7F1422B5
:100260007F22145F5F005F5F06097F017F00668960
:10027000956A606060606094A2FFA29408047E04A6
:100280000810207E201008082A1C08081C2A0808CC
:100290001E101010100C1E0C1E0C30383E3830068C
:1002A0000E3E0E06000000000000005F0000000788
:1002B000000700147F147F14242A7F2A12231308B6
:1002C000646236495620500008070300001C224192
:1002D000000041221C002A1C7F1C2A08083E080836
:1002E00000807030000808080808000060600020E6
:1002F000100804023E5149453E00427F40007249C9
:100300004949462141494D331814127F102745456C
:1003100045393C4A49493141211109073649494982
:1003200036464949291E00001400000040340000F0
:100330000008142241141414141400412214080259
:10034000015909063E415D594E7C1211127C7F49CC
:100350004949363E414141227F4141413E7F494921
:1003600049417F090909013E414151737F0808084D
:100370007F00417F41002040413F017F081422411E
:100380007F404040407F021C027F7F0408107F3E78
:100390004141413E7F090909063E4151215E7F09E5
:1003A000192946264949493203017F01033F40404C
:1003B000403F1F2040201F3F4038403F6314081437
:1003C0006303047804036159494D43007F4141416F
:1003D0000204081020004141417F04020102044050
:1003E00040404040000307080020545478407F28D4
:1003F0004444383844444428384444287F385454CA
:10040000541800087E090218A4A49C787F080404EC
:100410007800447D40002040403D007F102844008B
:1004200000417F40007C047804787C08040478381C
:1004300044444438FC1824241818242418FC7C084C
:10044000040408485454542404043F44243C4040C9
:10045000207C1C2040201C3C4030403C442810287C
:10046000444C9090907C4464544C440008364100C5
:100470000000770000004136080002010204023C3F
:100480002623263C1EA1A161123A4040207A38540E
:100490005455592155557941215454784121555489
:1004A000784020545579400C1E52721239555555DA
:1004B00059395454545939555454580000457C41C5
:1004C0000002457D420001457C40F0292429F0F0DE
:1004D000282528F07C545545002054547C547C0A2F
:1004E000097F4932494949323248484832324A48FC
:1004F00048303A4141217A3A42402078009DA0A0FC
:100500007D39444444393D4040403D3C24FF24244F
:10051000487E4943662B2FFC2F2BFF0929F620C06C
:10052000887E090320545479410000447D413048BD
:10053000484A32384040227A007A0A0A727D0D1900
:10054000317D2629292F28262929292630484D4062
:1005500020380808080808080808382F10C8ACBA5E
:100560002F102834FA00007B000008142A142222DD
:10057000142A1408AA005500AAAA55AA55AA0000D0
:1005800000FF00101010FF00141414FF001010FFE3
:1005900000FF1010F010F0141414FC001414F700F5
:1005A000FF0000FF00FF1414F404FC141417101FC4
:1005B00010101F101F1414141F00101010F0000052
:1005C00000001F101010101F10101010F01000006D
:1005D00000FF101010101010101010FF100000007D
:1005E000FF140000FF00FF00001F10170000FC04B4
:1005F000F414141710171414F404F40000FF00F797
:1006000014141414141414F700F7141414171410F9
:10061000101F101F141414F4141010F010F0000028
:100620001F101F0000001F14000000FC140000F049
:1006300010F01010FF10FF141414FF141010101FEE
:1006400000000000F010FFFFFFFFFFF0F0F0F0F0FF
:10065000FFFFFF0000000000FFFF0F0F0F0F0F381C
:10066000444438447C2A2A3E147E02020606027E56
:10067000027E0263554941633844443C04407E2075
:100680001E2006027E020299A5E7A5991C2A492A86
:100690001C4C7201724C304A4D4D30304878483015
:1006A000BC625A463D3E494949007E0101017E2A0D
:1006B0002A2A2A2A44445F444440514A4440404440
:1006C0004A51400000FF0103E080FF000008086B72
:1006D0006B083612362436060F090F06000018186C
:1006E0000000001010003040FF0101001F01011E3A
:1006F00000191D1712003C3C3C3C00000000000F9C
:100700000180961180FFB103012C2DB203012C2D25
:10071000B306012C2D012C2DB40107C003A20284C5
:10072000C101C5C2020A00C3028A2AC4028AEEC5F8
:10073000010E20003601C83A0105022A0400020019
:10074000812B04000100A0022A040000007F2B047A
:100750000000009F04E010021C07123732292D29E7
:10076000252B3900010310E110031D07062E2C294B
:100770002D2E2E373F0000021013800A29806412AC
:100780000180321180FF3A81050AB1830006030A15
:10079000360108B6021502B40100C08202700AC117
:1007A0000105C2020102C5823C380AFC021115E0B3
:1007B0001009160920211B131917151E2B040502F9
:1007C0000EE1900B14081E221D181E1B1A242B0666
:1007D00006020F0A2A04000200812B040002008195
:1007E00013800A2980FF7C3C3E5E2B3D3F2F5B5DE2
:1007F0003B2C2A225C009C07571A5E2311241FBE43
:10080000CFEFD1E2DEBFCDBF00E00CBF15E0A0E02E
:10081000B2E0EEE6FCE700E00BBF02C007900D92ED
:10082000A63EB107D9F71BE0A6EEB5E001C01D92C8
:10083000A235B107E1F717E0CCEFD7E004C022976B
:10084000FE010E94313EC63FD107C9F70E94F4164F
:100850000C949A3A0C9400001092EF051092F00557
:100860001092F1051092F2051092F3051092F40522
:100870001092F5051092F6051092EC051092EB051A
:100880001092EE051092ED051092E8051092E70522
:100890001092EA051092E905809191058093E60592
:1008A000089580919105853028F4809191058F5F9E
:1008B00080939105809191050895809191058823F9
:1008C00029F0809191058150809391058091910547
:1008D0000895FC01DB018091EB059091EC052091DE
:1008E000E7053091E805821B930B9183808380910B
:1008F000ED059091EE052091E9053091EA05821B06
:10090000930B8D939C9381E0089597FF03C0E0E0E3
:10091000F0E010C0E091E605F0E0EE0FFF1FEB50B5
:10092000FB4F0190F081E02DE058F0408E179F07BB
:1009300008F4FC01F093E805E093E70577FF03C0B6
:1009400060E070E010C0E091E605F0E0EE0FFF1F00
:10095000EF5FFA4F0190F081E02DE05AF040E6178A
:10096000F70708F4BF017093EA056093E90508955D
:10097000AF92BF92CF92DF92EF92FF920F931F93AD
:100980004091EB055091EC05425050402091ED050F
:100990003091EE05225030408091E60566E0869F5A
:1009A000C00111246091E7057091E8058A01061BDA
:1009B000170B6091E9057091EA057901E61AF70ACB
:1009C000835F9A4F68EF75E0F5E0CF2ED12CE5E01C
:1009D000AE2EB12C0E94E8361F910F91FF90EF9040
:1009E000DF90CF90BF90AF900895AF92BF92CF921B
:1009F000DF92EF92FF920F931F938091E60526E01E
:100A0000829FC00111244091E7055091E805209193
:100A1000E9053091EA05835F9A4F68EF75E000E0E1
:100A200010E0EE24FF24B0E8CB2ED12CA0EAAA2EB1
:100A3000B12C0E94E8361F910F91FF90EF90DF904C
:100A4000CF90BF90AF9008950F931F936091EB05E7
:100A50007091EC058091E7059091E805681B790B92
:100A60004091ED055091EE058091E9059091EA05E0
:100A7000481B590B88EF95E022E030E000E018EFCA
:100A80000E94BA1C1F910F910895AF92BF92CF920E
:100A9000DF92EF92FF920F931F935A016B01A82FE1
:100AA000BB27A7FDB09500D00F9261E375E0FD0173
:100AB00084E0EE0FFF1F8A95E1F7E60FF71F208114
:100AC000318142815381AA0FBB1FCD01019613E0F2
:100AD000880F991F1A95E1F7680F791FFB01E080D5
:100AE000F18002811381AF5FBA4F8D919C91A0E09C
:100AF000B0E0EDB7FEB781839283A383B483C601D0
:100B0000B501AA24BB2465010E9448150F900F90DF
:100B10000F900F901F910F91FF90EF90DF90CF906B
:100B2000BF90AF900895AF92BF92CF92DF92EF92B5
:100B3000FF920F931F935A016B01A82FBB27A7FDAC
:100B4000B09500D00F92FD0104E0EE0FFF1F0A9553
:100B5000E1F781E395E0E80FF91F248135814681B3
:100B60005781E484F58406851785AA0FBB1FAB5017
:100B7000BB4F8D919C91A0E0B0E0EDB7FEB78183B3
:100B80009283A383B483C601B501AA24BB24650163
:100B90000E9448150F900F900F900F901F910F918A
:100BA000FF90EF90DF90CF90BF90AF900895AF92FD
:100BB000BF92CF92DF92EF92FF920F931F937B0130
:100BC0008C0159016A018091E605B801A7010E94D4
:100BD00093057093E8056093E7058091E605B601FB
:100BE000A5010E9445052091E7053091E80537FFF2
:100BF00003C0E0E0F0E010C0E091E605F0E0EE0FA9
:100C0000FF1FEB50FB4F0190F081E02DE058F040CA
:100C10002E173F0708F4F901F093E805E093E70584
:100C200077FF03C060E070E010C0E091E605F0E0FF
:100C3000EE0FFF1FEF5FFA4F0190F081E02DE05AB9
:100C4000F040E617F70708F4BF017093EA056093D8
:100C5000E9051F910F91FF90EF90DF90CF90BF902B
:100C6000AF900895809191058093E6054091EF053E
:100C70005091F0056091F1057091F2050E94930585
:100C80007093EC056093EB054091F3055091F405EA
:100C90006091F5057091F6058091E6050E94450585
:100CA0007093EE056093ED058091E6050895AF928F
:100CB000BF92CF92DF92EF92FF920F931F93A82FD4
:100CC000BB27A7FDB09500D00F92CD01880F991FCB
:100CD000FC01EF5FFA4FE080F18000E010E0E1E31B
:100CE000F5E034E0AA0FBB1F3A95E1F7AE0FBF1F46
:100CF000AD90BD90CD90DC90019623E0880F991FB8
:100D00002A95E1F7E80FF91F80819181A281B381D3
:100D1000EDB7FEB781839283A383B483CB01BA017D
:100D200020E030E040E050E00E9448150F900F9026
:100D30000F900F901F910F91FF90EF90DF90CF9049
:100D4000BF90AF900895AF92BF92CF92DF92EF9293
:100D5000FF920F931F93992787FD909500D00F92D4
:100D6000FC01EE0FFF1FEB50FB4FE080F18000E035
:100D700010E0B4E0880F991FBA95E1F7E1E3F5E0E0
:100D8000DF01A80FB91F1496AD90BD90CD90DC90F7
:100D90001797E80FF91F84859585A685B785EDB768
:100DA000FEB781839283A383B483CB01BA0120E091
:100DB00030E040E050E00E9448150F900F900F90F7
:100DC0000F901F910F91FF90EF90DF90CF90BF9009
:100DD000AF90089597FF03C080E090E00EC0E091CF
:100DE000E605F0E0EE0FFF1FEB50FB4F0190F081A6
:100DF000E02DE817F90708F4CF019093EC058093F4
:100E0000EB0577FF03C060E070E00EC0E091E605FF
:100E1000F0E0EE0FFF1FEF5FFA4F0190F081E02D41
:100E2000E617F70708F4BF017093EE056093ED0530
:100E3000AC0160E070E08091E6050E94A30660933B
:100E4000EF057093F0058093F1059093F2054091C2
:100E5000ED055091EE0560E070E08091E6050E949E
:100E600057066093F3057093F4058093F50590930E
:100E7000F60508954091EB055091EC052091ED05A4
:100E80003091EE05260F371F840F951FB9010E9480
:100E9000EA060895CF92DF92EF92FF920F931F938D
:100EA000DF93CF93CDB7DEB7EDB6FEB6CEB6809169
:100EB0009205882359F18DB79EB7805091400FB6A7
:100EC000F8949EBF0FBE8DBF0DB71EB70F5F1F4FAB
:100ED000FE013E96C80160E071E04C855D859F0192
:100EE0000E94CC3A8EE798E06CE372E00E94DE1636
:100EF0008EE798E0B8010E94E1162E2D3C2DC90125
:100F00000FB6F8949EBF0FBE8DBF08C08DB79EB7B9
:100F10009C010FB6F8943EBF0FBE2DBF0FB6F894DC
:100F2000FEBE0FBEEDBECF91DF911F910F91FF90DE
:100F3000EF90DF90CF90089588EF95E066E047E06E
:100F400028E00E94441F10922E0610922F06109245
:100F5000300610923106109232061092330610922B
:100F6000340610923506109236061092370610920B
:100F700038061092390610923A0610923B061092EB
:100F80003C0610923D060E94311160934106709319
:100F90004206809343069093440608959091F70586
:100FA00080919105981711F40E945D040895909125
:100FB000F70580919105981711F40E945104089546
:100FC000EF92FF920F931F93CF93DF93EC017B017E
:100FD00080E00E94141520919505309196058C01B2
:100FE000021B130B81E00E9414152091970530918C
:100FF0009805821B930B9C01C8010496099710F475
:1010000000E010E0C9010496099710F420E030E0F8
:10101000C80160E870E00E94DF3D79836883C90100
:1010200060E870E00E94DF3DF701718360830E94F9
:1010300031117B018C018091410690914206A09173
:101040004306B0914406E816F9060A071B0740F468
:10105000E0924106F0924206009343061093440644
:101060008091990590919A05A0919B05B0919C055E
:10107000209141063091420640914306509144062A
:10108000820F931FA41FB51F8E159F05A007B107E0
:1010900010F080E019C0E0924106F0924206009301
:1010A00043061093440684E00E94E41420E0892B58
:1010B00009F421E080914006882321F080E022237A
:1010C00009F481E020934006DF91CF911F910F91A9
:1010D000FF90EF90089584E060E00E94FE1384E0AA
:1010E00061E00E94B11481E00E941415909396056E
:1010F0008093950580E00E94141590939805809345
:10110000970508958AEF98E065E00E94C22588233C
:1011100029F50F920F928FE392E0EDB7FEB792831D
:1011200081830E944A0787E592E0EDB7FEB792837C
:1011300081830E944A078BE692E0EDB7FEB7928367
:1011400081830E944A0783E892E0EDB7FEB792835D
:1011500081830E944A070F900F90FFCF0F920F924A
:101160008CEB92E0EDB7FEB7928381830E944A0731
:101170000F900F9008950F931F9308EF15E0C8018B
:1011800061E00E943B23C80160E00E94EE21C8019B
:1011900060E070E040E050E00E94321FC80160E073
:1011A00070E00E943E1FC80161E00E94381FC80124
:1011B0006FE170E00E9428201F910F910895EF9237
:1011C000FF920F931F93CF93DF93EC0180913E0624
:1011D00090913F068C179D0789F1D0933F06C093ED
:1011E0003E0688EF95E060E070E044E950E020E8DA
:1011F00030E00CE010E0E0EEEE2EE7E0FE2E0E9484
:10120000762188EF95E061E00E94381F88EF95E035
:101210006FE178EF0E943E1F88EF95E060E070E09C
:1012200046E950E00E94321F88EF95E061E00E949D
:10123000381F88EF95E0BE010E94E116DF91CF9143
:101240001F910F91FF90EF9008958BEC92E00E9418
:10125000DF0808957F928F929F92AF92BF92CF92B4
:10126000DF92EF92FF920F931F93DF93CF93CDB74F
:10127000DEB728970FB6F894DEBF0FBECDBF2DB7EF
:101280003EB780914E0B90914F0B009721F48091C7
:10129000F1049091F204281B390B809193059091F1
:1012A000940528173907E0F50F920F928CEC92E025
:1012B000ADB7BEB712969C938E9311970E944A07C2
:1012C0004DB75EB720914E0B30914F0B0F900F90A2
:1012D0002115310521F42091F1043091F20400D060
:1012E00000D0EDB7FEB7319682ED92E0ADB7BEB754
:1012F00012969C938E931197421B530B53834283F8
:101300008091930590919405958384830E944A0768
:10131000EDB7FEB736960FB6F894FEBF0FBEEDBF21
:1013200080912306882311F4992404C01092230687
:10133000992493941A8219821C821B82F8949091AA
:1013400091058091F7057724981711F0772473940D
:101350007894772009F441C03091E6058091910599
:101360003817E9F02091910500D000D0EDB7FEB715
:10137000319683EE92E0ADB7BEB712969C938E93F2
:10138000119732831382248315820E944A07EDB796
:10139000FEB736960FB6F894FEBF0FBEEDBF0E94A3
:1013A00032064091A2055091A3055695479580912C
:1013B000EB059091EC052091A4053091A50536959B
:1013C00027956091ED057091EE05621B730B841BF0
:1013D000950B0E94850499249394CE010196BE0139
:1013E0006D5F7F4F0E94E007D82E89819A81892BFB
:1013F00029F48B819C81892B09F457C0E090E70583
:10140000F090E8050091E9051091EA05CE010596F6
:10141000BE01695F7F4F0E946904882309F445C0BB
:101420008D819E818A30910548F4E090E705F09027
:10143000E80520EE3FEFE20EF31E0DC08637910562
:1014400010F420E009C0E090E705F090E80580E2A4
:1014500090E0E80EF91E21E08F8198858A30910591
:1014600038F40091E9051091EA05005210400CC0D3
:101470008637910538F00091E9051091EA05005E84
:101480001F4F02C0222339F0C701B8010E94850412
:10149000992493940AC00E94B8046B817C8189814D
:1014A0009A810E943A070E942405DD2009F47BC13D
:1014B000ADB7BEB71A970FB6F894BEBF0FBEADBF9B
:1014C000EDB7FEB731968AEF92E012969C938E9319
:1014D00011978091F3059091F405A091F505B091D5
:1014E000F60582839383A483B5838091EF05909161
:1014F000F005A091F105B091F20586839783A0874E
:10150000B1870E944A07A090EF05B090F005C09007
:10151000F105D090F205E090F305F090F40500910C
:10152000F5051091F605EDB7FEB73A960FB6F894AB
:10153000FEBF0FBEEDBF80912C0690912D06892B2A
:10154000E9F52DB73EB72A5030400FB6F8943EBFAC
:101550000FBE2DBFEDB7FEB7319689E193E0ADB771
:10156000BEB712969C938E931197A282B382C482C7
:10157000D582E682F782008711870E944A07E092AF
:101580003206F09233060093340610933506A0928B
:101590002E06B0922F06C0923006D092310681E01E
:1015A00090E090932D0680932C06EDB7FEB73A9607
:1015B0000FB6F894FEBF0FBEEDBFF5C02DB73EB716
:1015C0002A5030400FB6F8943EBF0FBE2DBFEDB786
:1015D000FEB7319685E393E0ADB7BEB712969C9304
:1015E0008E931197A282B382C482D582E682F7825B
:1015F000008711870E944A07E0923A06F0923B0664
:1016000000933C0610933D06A0923606B092370632
:10161000C0923806D092390610922D0610922C06F0
:10162000EDB7FEB738960FB6F894FEBF0FBEEDBF0C
:101630008FE493E0928381830E944A070F900F907A
:1016400020912E0630912F064091300650913106A0
:101650006091320670913306809134069091350680
:10166000A0903606B0903706C0903806D090390664
:10167000E0903A06F0903B0600913C0610913D0642
:101680000E94B00F8C0100D00F9280E693E0ADB7BE
:10169000BEB712969C938E93119714961C930E933B
:1016A00013970E944A070F900F900F900F901016FB
:1016B00011060CF078C080912406909125068017C1
:1016C000910728F4909327068093260604C0109370
:1016D0002706009326064091240650912506809106
:1016E000280690912906B8010E94B10E97FD5EC0B0
:1016F0000F920F9284E793E0EDB7FEB79283818358
:101700000E944A0700E010E0EE24FF240F900F90A3
:10171000FAE8CF2EF3E0DF2E3DC02091280630916D
:1017200029062E0D3F1D8DB79EB70C970FB6F89466
:101730009EBF0FBE8DBFEDB7FEB73196ADB7BEB73A
:101740001296DC92CE92119713830283D9011496DC
:101750004D915D916D917C9117974483558366837C
:1017600077832D913D914D915C9120873187428700
:1017700053870E944A070F5F1F4FE8E0F0E0EE0E2C
:10178000FF1E2DB73EB7245F3F4F0FB6F8943EBF04
:101790000FBE2DBF809126069091270608171907C6
:1017A00008F4BBCF03C0992009F4B9C00E94F50426
:1017B0000E9424058091260690912706029708F43E
:1017C00094C0CC24DD247601AA24BB243DC0009122
:1017D0002A0610912B060A0D1B1DE0912806F09198
:1017E0002906EA0DFB1D4481558166817781809130
:1017F000E6050E944505D80114966D937D938D935F
:101800009C93179700912A0610912B060A0D1B1D19
:10181000E0912806F0912906EA0DFB1D40815181D7
:10182000628173818091E6050E949305F8016083CF
:101830007183828393830894C11CD11CE11CF11C29
:1018400028E030E0A20EB31E809126069091270674
:10185000A0E0B0E0C816D906EA06FB0608F4B7CF48
:10186000AA24BB2465018824992433C0E0912A0668
:10187000F0912B06DF01A80DB91D8091E70590912D
:10188000E805E090E905F090EA0528E030E0820EF6
:10189000931EE80DF91D6D917C911197681B790BD2
:1018A00014964D915C9115974E195F0920813181F5
:1018B000281B390B048115810E191F0988EF95E04B
:1018C000EE24FF240E94EE1C0894A11CB11CC11C34
:1018D000D11C80912606909127060197A0E0B0E0E8
:1018E000A816B906CA06DB0608F20E942509772069
:1018F000B1F0F8948091E605809391058093F70507
:1019000078940F920F9286E993E0ADB7BEB7129626
:101910009C938E9311970E944A070F900F9080918D
:101920002C0690912D06892B19F486EA93E002C0CB
:101930008CEA93E00E94DF0828960FB6F894DEBF89
:101940000FBECDBFCF91DF911F910F91FF90EF9010
:10195000DF90CF90BF90AF909F908F907F90089531
:10196000CF92DF92EF92FF920F931F93CF93DF936B
:101970008EE798E040E855E260E070E00E942C19A4
:101980008EE798E060EB73E00E94E1168EE798E046
:101990000E940C1A0E94BB080E9482080E946B08D9
:1019A0000E942C04C090E605CC2DD0E0E4E0CC0FE2
:1019B000DD1FEA95E1F771E3C72E75E0D72ECC0E57
:1019C000DD1EFE01EB5CFA4FD6011C966D917D91F8
:1019D0008D919C911F972081318142815381620FAB
:1019E000731F841F951F22E030E040E050E00E940A
:1019F000143E79018A01C75CDA4F688179818A8156
:101A00009B81F6012081318142815381620F731FD6
:101A1000841F951F22E030E040E050E00E94143E19
:101A2000C801B7010E94D7058091A2059091A30536
:101A3000969587954091E7055091E8056091A4053A
:101A40007091A505769567952091E9053091EA0595
:101A5000620F731F840F951F0E94EA0681E0809336
:101A6000230682E060E00E94FE1382E061E00E94B3
:101A7000B11483E060E00E94FE1383E061E00E9405
:101A8000B11481E067ED77E042E050E00E94FA1186
:101A900080E06EEC77E042E050E00E94FA1168EEE0
:101AA00073E080E090E00E943F1184E690E0909324
:101AB0002506809324068DB79EB720914E0B30915A
:101AC0004F0B2115310511F0A90104C04091F1041B
:101AD0005091F2046091930570919405841B950BCD
:101AE000861B970B80529340B0F48DB79EB721159B
:101AF000310521F42091F1043091F204821B930B03
:101B0000861B970B23E0969587952A95E1F790938E
:101B1000250680932406809124069091250603E0F3
:101B2000880F991F0A95E1F70E943638809328069E
:101B30009093290600D00F928CEB93E0ADB7BEB71F
:101B400012969C938E93119780912406909125066E
:101B500014969C938E9313970E944A070F900F90B0
:101B60000F900F90809124069091250613E0880F26
:101B7000991F1A95E1F70E94363880932A069093B0
:101B80002B0610922706109226064DB75EB72091BD
:101B90004E0B30914F0B2115310521F42091F104AA
:101BA0003091F20400D00F928DEC93E0EDB7FEB7C8
:101BB00092838183421B530B548343830E944A07C1
:101BC0000F900F900F900F90DF91CF911F910F9179
:101BD000FF90EF90DF90CF900895EF92FF920F93D8
:101BE0001F93CF93DF93EC0160E070E04AE050E098
:101BF0000E946B397B018C0161157105810591058E
:101C000051F520914C0B30914D0B2232310519F5D5
:101C100000D000D0EDB7FEB7319689ED93E0ADB7B7
:101C2000BEB712969C938E93119733832283D583EC
:101C3000C4830E944A078DB79EB706960FB6F894E4
:101C40009EBF0FBE8DBF60914C0B70914D0B80E01D
:101C500090E00E948F1BB701C801DF91CF911F91C7
:101C60000F91FF90EF9008954F925F926F927F9245
:101C70008F929F92BF92CF92DF92EF92FF920F933B
:101C80001F93CF93DF934B016A01290138017C0137
:101C9000E60EF71E00E010E0E801C80DD91DF701BF
:101CA000B080BB2099F0C201801B910B0297A0F07D
:101CB0006B2D772767FD7095C3010E94B23A0F5FC5
:101CC0001F4F0894E11CF11C009711F0219604C0ED
:101CD000F601B1926F01E0CFF6011082CE01DF91E3
:101CE000CF911F910F91FF90EF90DF90CF90BF9019
:101CF0009F908F907F906F905F904F900895EF929C
:101D0000FF920F931F93CF93DF938C017B01C0E071
:101D1000D0E00894E108F10815C08EE798E00E9431
:101D2000B219892BD1F38EE798E00E94E319F801EC
:101D3000EC0FFD1F80838D3041F08A3031F0882315
:101D400021F02196CE15DF0540F30C0F1D1FF80181
:101D50001082CE01DF91CF911F910F91FF90EF90F4
:101D600008952F923F924F925F926F927F928F923F
:101D70009F92AF92BF92CF92DF92EF92FF920F931A
:101D80001F93DF93CF9300D00F92CDB7DEB7F82E1D
:101D9000E92E1B015A8349832DB73EB73C832B8321
:101DA0008DB79EB780970FB6F8949EBF0FBE8DBFBC
:101DB0000DB71EB70F5F1F4F00D000D0EDB7FEB7B5
:101DC000319685E094E0ADB7BEB712969C938E93A2
:101DD00011977383628329813A81358324830E941A
:101DE0004A078DB79EB706960FB6F8949EBF0FBEF2
:101DF0008DBF1214130424F4A981BA81B7FF20C047
:101E000000D000D0EDB7FEB7319680E394E0ADB7D7
:101E1000BEB712969C938E931197338222822981AA
:101E20003A81358324830E944A072FEF3FEF8DB715
:101E30009EB706960FB6F8949EBF0FBE8DBF71C0B9
:101E4000D02EC12E8F2D9E2D9C0129016624772432
:101E50008EE798E068E474E00E94E1168D2D9C2DD9
:101E600060E270E00E947F0EF82EE92E8D2D9C2DF1
:101E700062E070E04D2D5C2D2F2D3E2D0AE414E024
:101E80000E94340E8D2D9C2D60E070E04D2D5C2D58
:101E90002F2D3E2D0CE414E00E94340E8D2D9C2D30
:101EA0000E94ED0D4B015C018D2D9C2D68E070E0D2
:101EB0004D2D5C2D2F2D3E2D0AE414E00E94340E92
:101EC0008D2D9C2D0E94ED0DA981BA816A167B068D
:101ED0005CF4F20184829582A682B782D2016D936E
:101EE0007D938D939C9313970894611C711CE8E07B
:101EF000F0E04E0E5F1E621473040CF4A9CF8EE75F
:101F000098E068E474E00E94E1168D2D9C2D60E25B
:101F100070E00E947F0E8D2D9C2D0E94ED0D20E023
:101F200030E0C9012B813C810FB6F8943EBF0FBE53
:101F30002DBF0F900F900F900F90CF91DF911F91B9
:101F40000F91FF90EF90DF90CF90BF90AF909F9058
:101F50008F907F906F905F904F903F902F9008955B
:101F60002F923F924F925F926F927F928F929F92A9
:101F7000AF92BF92CF92DF92EF92FF920F931F9397
:101F8000DF93CF93CDB7DEB768970FB6F894DEBF77
:101F90000FBECDBF29833A834B835C836D837E83E1
:101FA0008F839887A986BA86CB86DC86ED86FE86E7
:101FB0000F87188B2DB63EB68D809E80AF80B8847B
:101FC00049805A806B807C808D859E85AF85B889DD
:101FD0008D8B9E8BAF8BB88F89859A85AB85BC85A1
:101FE000898B9A8BAB8BBC8B0F920F928EE494E013
:101FF000ADB7BEB712969C938E9311970E944A0775
:102000000F900F90EDB7FEB7B0970FB6F894FEBFE4
:102010000FBEEDBFCDB6DEB60894C11CD11C8DB786
:102020009EB742970FB6F8949EBF0FBE8DBFEDB717
:10203000FEB7319688E594E0ADB7BEB712969C9393
:102040008E93119782829382A482B58246825782B0
:10205000608671868D899E89AF89B88D82879387C6
:10206000A487B58789899A89AB89BC898687978730
:10207000A08BB18B0E944A07ADB7BEB752960FB680
:10208000F894BEBF0FBEADBF68EE73E080E090E095
:102090000E943F110F920F9286E894E0EDB7FEB7D1
:1020A000928381830E944A070F900F900EE718E0F9
:1020B000C8016FE974E00E94DE16C801B501A401F1
:1020C0002AE030E00E946B168CE4E82E84E0F82EC3
:1020D000C801B7010E94DE16C801B301A2012AE0BF
:1020E00030E00E946B16C801B7010E94DE16C801DD
:1020F0004D895E896F89788D2AE030E00E946B16E9
:10210000C801B7010E94DE16C80149895A896B8946
:102110007C892AE030E00E94AB1668EE73E080E034
:1021200090E00E943F11C60160E270E00E947F0EC5
:102130008C010F920F92ADB7BEB71196CC9211974A
:102140001296DC920E944A070F900F90C60161E040
:1021500070E0A60198010AE414E00E94340EC60162
:102160000E94ED0D162F072F00D00F92EDB7FEB78E
:10217000319682EA94E0ADB7BEB712969C938E93E7
:102180001197128303830E944A070F900F900F90BC
:102190000F90812F902F0FB6F8943EBE0FBE2DBE2C
:1021A00068960FB6F894DEBF0FBECDBFCF91DF911A
:1021B0001F910F91FF90EF90DF90CF90BF90AF9065
:1021C0009F908F907F906F905F904F903F902F9057
:1021D00008951F920F920FB60F9211242F933F93E1
:1021E0008F939F93AF93BF938091490690914A0636
:1021F000A0914B06B0914C0630914D060196A11D61
:10220000B11D232F2D5F2D3720F02D570196A11DD5
:10221000B11D20934D068093490690934A06A093E2
:102220004B06B0934C068091450690914606A091CE
:102230004706B09148060196A11DB11D8093450641
:1022400090934606A0934706B0934806BF91AF917E
:102250009F918F913F912F910F900FBE0F901F90E4
:1022600018958FB7F8942091490630914A0640910D
:102270004B0650914C068FBFB901CA0108959B01CE
:10228000AC017FB7F8948091450690914606A091E5
:102290004706B091480666B5A89B05C06F3F19F088
:1022A0000196A11DB11D7FBFBA2FA92F982F882796
:1022B000860F911DA11DB11D62E0880F991FAA1FF5
:1022C000BB1F6A95D1F7BC012DC0FFB7F894809170
:1022D000450690914606A0914706B0914806E6B59E
:1022E000A89B05C0EF3F19F00196A11DB11DFFBFCE
:1022F000BA2FA92F982F88278E0F911DA11DB11DD0
:10230000E2E0880F991FAA1FBB1FEA95D1F7861B31
:10231000970B885E9340C8F22150304040405040B7
:1023200068517C4F211531054105510571F608951D
:10233000789484B5826084BD84B5816084BD85B5A0
:10234000826085BD85B5816085BDEEE6F0E0808167
:1023500081608083E1E8F0E0108280818260808388
:10236000808181608083E0E8F0E08081816080830B
:10237000E1EBF0E0808184608083E0EBF0E080813D
:1023800081608083E1E9F0E08081826080838081E8
:1023900081608083E0E9F0E0808181608083E1EA10
:1023A000F0E0808182608083808181608083E0EAC8
:1023B000F0E0808181608083E1E2F1E080818260F1
:1023C0008083808181608083E0E2F1E080818160B0
:1023D0008083EAE7F0E0808184608083808182608E
:1023E0008083808181608083808180688083109277
:1023F000C1000895883008F078C0E82FF0E0EE0FB3
:10240000FF1FE25BF94F718360838330D9F0843022
:1024100030F4813009F444C0823060F439C0853032
:1024200051F18530D8F0863009F446C0873009F084
:102430005CC04FC0809169008C7F842B80936900C1
:10244000E89A089580916900440F551F440F551F65
:10245000837F842B80936900E99A089580916900B5
:1024600074E0440F551F7A95E1F78F7C842B80939D
:102470006900EA9A08958091690066E0440F551F4B
:102480006A95E1F78F73842B80936900EB9A089526
:1024900080916A008C7F842B80936A00EC9A089567
:1024A00080916A00440F551F440F551F837F842B72
:1024B00080936A00ED9A089580916A0024E0440FA9
:1024C000551F2A95E1F78F7C842B80936A00EE9A42
:1024D000089580916A0096E0440F551F9A95E1F7A0
:1024E0008F73842B80936A00EF9A08951F920F9246
:1024F0000FB60F920BB60F9211242F933F934F9369
:102500005F936F937F938F939F93AF93BF93EF935B
:10251000FF938091520690915306892B29F0E09108
:102520005206F09153061995FF91EF91BF91AF912B
:102530009F918F917F916F915F914F913F912F91DB
:102540000F900BBE0F900FBE0F901F9018951F920B
:102550000F920FB60F920BB60F9211242F933F9349
:102560004F935F936F937F938F939F93AF93BF939B
:10257000EF93FF938091540690915506892B29F093
:10258000E0915406F09155061995FF91EF91BF9196
:10259000AF919F918F917F916F915F914F913F91FB
:1025A0002F910F900BBE0F900FBE0F901F9018959C
:1025B0001F920F920FB60F920BB60F9211242F930A
:1025C0003F934F935F936F937F938F939F93AF93BB
:1025D000BF93EF93FF938091560690915706892BF6
:1025E00029F0E0915606F09157061995FF91EF9169
:1025F000BF91AF919F918F917F916F915F914F911B
:102600003F912F910F900BBE0F900FBE0F901F9018
:1026100018951F920F920FB60F920BB60F921124BE
:102620002F933F934F935F936F937F938F939F93DA
:10263000AF93BF93EF93FF93809158069091590603
:10264000892B29F0E0915806F09159061995FF91D0
:10265000EF91BF91AF919F918F917F916F915F911A
:102660004F913F912F910F900BBE0F900FBE0F9087
:102670001F9018951F920F920FB60F920BB60F92E4
:1026800011242F933F934F935F936F937F938F9377
:102690009F93AF93BF93EF93FF9380914E069091DA
:1026A0004F06892B29F0E0914E06F0914F061995BF
:1026B000FF91EF91BF91AF919F918F917F916F911A
:1026C0005F914F913F912F910F900BBE0F900FBED6
:1026D0000F901F9018951F920F920FB60F920BB686
:1026E0000F9211242F933F934F935F936F937F9398
:1026F0008F939F93AF93BF93EF93FF938091500677
:1027000090915106892B29F0E0915006F0915106E5
:102710001995FF91EF91BF91AF919F918F917F910B
:102720006F915F914F913F912F910F900BBE0F9042
:102730000FBE0F901F9018951F920F920FB60F9219
:102740000BB60F9211242F933F934F935F936F9388
:102750007F938F939F93AF93BF93EF93FF9380915A
:102760005A0690915B06892B29F0E0915A06F09168
:102770005B061995FF91EF91BF91AF919F918F915A
:102780007F916F915F914F913F912F910F900BBE71
:102790000F900FBE0F901F9018951F920F920FB6BB
:1027A0000F920BB60F9211242F933F934F935F9389
:1027B0006F937F938F939F93AF93BF93EF93FF9309
:1027C00080915C0690915D06892B29F0E0915C0672
:1027D000F0915D061995FF91EF91BF91AF919F9197
:1027E0008F917F916F915F914F913F912F910F90BA
:1027F0000BBE0F900FBE0F901F901895CF93DF93D5
:10280000482F50E0CA0188589E4FFC0134914E5C1D
:102810005E4FFA018491882369F190E0880F991F37
:10282000FC01EC51FF4FA591B491FC01E250FF4F28
:10283000C591D491662351F42FB7F8948C91932FBE
:10284000909589238C93888189230BC0623061F431
:102850002FB7F8948C91932F909589238C9388812E
:10286000832B88832FBF06C09FB7F8948C91832B4E
:102870008C939FBFDF91CF910895893009F449C0AF
:102880008A30A0F4843051F1853040F4823079F1FF
:10289000833000F5813009F063C026C0873079F1BC
:1028A000883098F5863009F05BC025C08D3009F47A
:1028B00042C08E3028F48B30B1F18C30C0F52DC081
:1028C000803109F442C0813109F445C08F3009F0EC
:1028D00047C037C0809180008F7703C0809180000F
:1028E0008F7D80938000089584B58F7702C084B572
:1028F0008F7D84BD08958091B0008F7703C0809153
:10290000B0008F7D8093B0000895809190008F7704
:1029100007C0809190008F7D03C080919000877FD9
:102920008093900008958091A0008F7707C08091D8
:10293000A0008F7D03C08091A000877F8093A000BE
:102940000895809120018F7703C0809120018F7DB1
:1029500080932001089580912001877F809320013A
:102960000895FF920F931F93F62E482F50E0CA014F
:1029700082549E4FFC012491CA0188589E4FFC014D
:1029800014914E5C5E4FFA0104910023C9F022239A
:1029900019F0822F0E943D14E02FF0E0EE0FFF1F90
:1029A000E250FF4FA591B4919FB7F894FF2021F416
:1029B0008C911095812302C08C91812B8C939FBFA9
:1029C0001F910F91FF9008950F931F93482F50E090
:1029D000CA0182549E4FFC012491CA0188589E4F1F
:1029E000FC0104914E5C5E4FFA011491112319F41D
:1029F00020E030E015C0222319F0822F0E943D1400
:102A0000812F90E0880F991F885E9E4FFC01A59151
:102A1000B4918C9120E030E0802311F021E030E08F
:102A2000C9011F910F910895382F863308F036534E
:102A300020917B00832F86958695869590E0817006
:102A4000907043E0880F991F4A95E1F7277F282B64
:102A500020937B00377080919D058295880F880FA9
:102A6000807C832B80937C0080917A0080648093AB
:102A70007A0080917A0086FDFCCF20917800409109
:102A80007900942F80E030E0282B392BC90108957C
:102A90002F923F924F925F926F927F928F929F926E
:102AA000AF92BF92CF92DF92EF92FF920F931F935C
:102AB000DF93CF93CDB7DEB73B014C0119012A015B
:102AC0006E897F89888D998D6A197B098C099D098A
:102AD000621A730A840A950AA40193010E94AC3D0C
:102AE000E218F30804091509A80197010E94143E91
:102AF0002A0D3B1D4C1D5D1DB901CA01CF91DF910F
:102B00001F910F91FF90EF90DF90CF90BF90AF900B
:102B10009F908F907F906F905F904F903F902F90FD
:102B20000895CF92DF92EF92FF920F931F93CF936E
:102B3000DF937C016B018A01C0E0D0E00FC0D601B9
:102B40006D916D01D701ED91FC910190F081E02D27
:102B5000C7011995C80FD91F015010400115110563
:102B600071F7CE01DF91CF911F910F91FF90EF9000
:102B7000DF90CF900895EF92FF920F931F938C01F7
:102B8000DC01ED91FC910190F081E02D6DE0199553
:102B90007C01D801ED91FC910190F081E02DC801FC
:102BA0006AE019959C012E0D3F1DC9011F910F91DF
:102BB000FF90EF900895EF92FF920F931F937C0187
:102BC000DC01ED91FC910190F081E02D19958C01D3
:102BD000C7010E94BB15080F191FC8011F910F9153
:102BE000FF90EF900895CF93DF93DB010D900020CD
:102BF000E9F71197A61BB70BEC01E881F981028078
:102C0000F381E02DAD011995DF91CF9108954F9299
:102C10005F927F928F929F92AF92BF92CF92DF92FC
:102C2000EF92FF920F931F93DF93CF93CDB7DEB751
:102C3000A1970FB6F894DEBF0FBECDBF2C01742E46
:102C4000CB01223008F42AE019A231E2C32ED12CA4
:102C5000CC0EDD1E822E9924AA24BB24672D752F4D
:102C6000A50194010E94F23D79018A01C801B701D2
:102C7000A50194010E94AC3D472D461B0894C10854
:102C8000D1084A3014F4405D01C0495CF60140832C
:102C9000E114F1040105110521F07E2C5F2DC8011E
:102CA000DDCFC201B6010E94F315A1960FB6F894CC
:102CB000DEBF0FBECDBFCF91DF911F910F91FF906F
:102CC000EF90DF90CF90BF90AF909F908F907F90CC
:102CD0005F904F900895CF92DF92EF92FF920F9303
:102CE0001F93CF93DF93EC016A017B01211531051E
:102CF00041F4E881F9810190F081E02D642F19956C
:102D00001FC02A303105D1F477FF17C0E881F9815F
:102D10000190F081E02D6DE219958C014427552733
:102D2000BA014C195D096E097F09CE012AE00E94A3
:102D300007169801280F391F04C02AE00E940716C1
:102D40009C01C901DF91CF911F910F91FF90EF90EE
:102D5000DF90CF900895EF92FF920F931F937C0125
:102D60000E946B168C01C7010E94BB159C01200FAD
:102D7000311FC9011F910F91FF90EF900895CF92DD
:102D8000DF92EF92FF920F931F936C017B019A01E8
:102D90000027F7FC0095102FB801A7010E946B16C1
:102DA0008C01C6010E94BB15080F191FC8011F9195
:102DB0000F91FF90EF90DF90CF9008950E94F31550
:102DC0000895EF92FF920F931F937C010E94F315D9
:102DD0008C01C7010E94BB15080F191FC8011F9164
:102DE0000F91FF90EF900895CF93DF930E94981179
:102DF0000E94B00CC7EED7E10E942A092097E1F3A8
:102E00000E94E717F9CF08951F920F920FB60F9205
:102E10000BB60F9211242F933F934F938F939F9351
:102E2000EF93FF934091C60020919E0630919F063C
:102E30002F5F3F4F2F7330708091A0069091A106B5
:102E40002817390759F0E0919E06F0919F06E25A43
:102E5000F94F408330939F0620939E06FF91EF9198
:102E60009F918F914F913F912F910F900BBE0F909B
:102E70000FBE0F901F90189508951F920F920FB6D6
:102E80000F920BB60F9211242F933F934F938F9372
:102E90009F93EF93FF934091CE00209126073091AE
:102EA00027072F5F3F4F2F73307080912807909135
:102EB00029072817390759F0E0912607F0912707CD
:102EC000EA51F94F40833093270720932607FF915B
:102ED000EF919F918F914F913F912F910F900BBE4A
:102EE0000F900FBE0F901F90189508951F920F928C
:102EF0000FB60F920BB60F9211242F933F934F935F
:102F00008F939F93EF93FF934091D6002091AE074C
:102F10003091AF072F5F3F4F2F7330708091B00714
:102F20009091B1072817390759F0E091AE07F09159
:102F3000AF07E259F84F40833093AF072093AE07B5
:102F4000FF91EF919F918F914F913F912F910F9012
:102F50000BBE0F900FBE0F901F90189508951F92F3
:102F60000F920FB60F920BB60F9211242F933F932F
:102F70004F938F939F93EF93FF934091360120914E
:102F80003608309137082F5F3F4F2F733070809194
:102F90003808909139082817390759F0E091360818
:102FA000F0913708EA50F84F408330933708209368
:102FB0003608FF91EF919F918F914F913F912F9103
:102FC0000F900BBE0F900FBE0F901F901895E091C1
:102FD0008A08F0918B08E05CFF4F819191912081EC
:102FE0003181821B930B8F739070892B11F00E949B
:102FF0000317E091A908F091AA08E05CFF4F8191C6
:10300000919120813181821B930B8F739070892B5A
:1030100011F00E943C17E091C808F091C908E05CEB
:10302000FF4F8191919120813181821B930B8F738E
:103030009070892B11F00E947517E091E708F091CC
:10304000E808E05CFF4F8191919120813181821BE2
:10305000930B8F739070892B11F00E94AE17089517
:103060001F920F920FB60F920BB60F9211242F934F
:103070003F938F939F93EF93FF932091E2063091BC
:10308000E3068091E4069091E5062817390731F4AC
:103090008091C1008F7D8093C10014C0E091E4064F
:1030A000F091E506EE55F94F20818091E40690916C
:1030B000E50601968F7390709093E5068093E40681
:1030C0002093C600FF91EF919F918F913F912F9197
:1030D0000F900BBE0F900FBE0F901F9018951F9270
:1030E0000F920FB60F920BB60F9211242F933F93AE
:1030F0008F939F93EF93FF9320916A0730916B0713
:1031000080916C0790916D072817390731F48091F1
:10311000C9008F7D8093C90014C0E0916C07F091C5
:103120006D07E65DF84F208180916C0790916D07E7
:1031300001968F73907090936D0780936C07209326
:10314000CE00FF91EF919F918F913F912F910F9022
:103150000BBE0F900FBE0F901F9018951F920F92ED
:103160000FB60F920BB60F9211242F933F938F93AC
:103170009F93EF93FF932091F2073091F307809193
:10318000F4079091F5072817390731F48091D100A1
:103190008F7D8093D10014C0E091F407F091F50782
:1031A000EE54F84F20818091F4079091F507019635
:1031B0008F7390709093F5078093F4072093D60057
:1031C000FF91EF919F918F913F912F910F900BBEA7
:1031D0000F900FBE0F901F9018951F920F920FB671
:1031E0000F920BB60F9211242F933F938F939F93BF
:1031F000EF93FF9320917A0830917B0880917C08AF
:1032000090917D082817390731F4809131018F7D25
:103210008093310114C0E0917C08F0917D08E65C58
:10322000F74F208180917C0890917D0801968F73E3
:10323000907090937D0880937C0820933601FF91D5
:10324000EF919F918F913F912F910F900BBE0F9017
:103250000FBE0F901F901895AF92BF92DF92EF9222
:10326000FF920F931F93CF93DF93EC017A018B01B1
:10327000DD24403081EE580780E0680780E0780761
:1032800011F0DD24D39491E0A92EB12CEC89FD89B5
:10329000DD2069F0C5010E8C02C0880F991F0A94C9
:1032A000E2F7808360E079E08DE390E005C0108272
:1032B00060E874E88EE190E0A80197010E94F23D79
:1032C00021503040404050405695479537952795BE
:1032D00080E12030380720F0DD2011F0DD24D6CF4A
:1032E000E889F9893083EA89FB892083EE89FF899F
:1032F000408121E030E0C9010A8C02C0880F991F8B
:103300000A94E2F7482B4083EE89FF894081C90186
:103310000B8C02C0880F991F0A94E2F7482B408358
:10332000EE89FF894081C9010C8C02C0880F991F6A
:103330000A94E2F7482B4083EE89FF8980810D8C47
:1033400002C0220F331F0A94E2F72095282320831E
:10335000DF91CF911F910F91FF90EF90DF90BF9081
:10336000AF900895DC011C96ED91FC911D97E05CF7
:10337000FF4F2191319180819181281B390B2F734F
:103380003070C9010895DC011C96ED91FC911D97E8
:10339000E05CFF4F20813181E054F040DF01AE5B03
:1033A000BF4F8D919C9111972817390719F42FEF72
:1033B0003FEF07C08D919C91E80FF91F8081282F66
:1033C00030E0C9010895DC011C96ED91FC911D9738
:1033D000E05CFF4F20813181E054F040DF01AE5BC3
:1033E000BF4F8D919C9111972817390719F42FEF32
:1033F0003FEF10C08D919C911197E80FF91F20812C
:103400008D919C91119701968F73907011969C935A
:103410008E9330E0C9010895FC0186859785DC0113
:10342000A05CBF4FFC01EE5BFF4F2D913C911197CB
:103430008081918128173907C1F70895CF93DF93D1
:10344000EC01EE85FF85E05CFF4F20813181E05487
:10345000F0402F5F3F4F2F733070DF01AE5BBF4FE7
:103460008D919C91119728173907D1F3E05CFF4F9C
:1034700080819181E054F040E80FF91F6083EE8570
:10348000FF85E05CFF4F31832083EE89FF89208137
:1034900081E090E00D8C02C0880F991F0A94E2F73A
:1034A000282B208381E090E0DF91CF9108951F9336
:1034B000109281081092800828EE33E040E050E03E
:1034C00020938208309383084093840850938508A2
:1034D0006AEA75E070937F0860937E088EE596E057
:1034E00090938B0880938A0882EA96E090938D08E7
:1034F00080938C0885EC90E090938F0880938E08E1
:1035000084EC90E0909391088093900880EC90E098
:10351000909393088093920881EC90E090939508A3
:103520008093940886EC90E0909397088093960897
:1035300014E010939808B3E0B0939908A7E0A09323
:103540009A08F5E0F0939B08E1E0E0939C08109264
:10355000A00810929F082093A1083093A2084093DE
:10356000A3085093A40870939E0860939D0886EE6C
:1035700096E09093AA088093A9088AE297E0909336
:10358000AC088093AB088DEC90E09093AE088093EC
:10359000AD088CEC90E09093B0088093AF0888EC75
:1035A00090E09093B2088093B10889EC90E09093FA
:1035B000B4088093B3088EEC90E09093B6088093A3
:1035C000B5081093B708B093B808A093B908F09362
:1035D000BA08E093BB081092BF081092BE0820936F
:1035E000C0083093C1084093C2085093C308709339
:1035F000BD086093BC088EE697E09093C90880935D
:10360000C80882EB97E09093CB088093CA0885EDB9
:1036100090E09093CD088093CC0884ED90E0909357
:10362000CF088093CE0880ED90E09093D1088093EE
:10363000D00881ED90E09093D3088093D20886ED76
:1036400090E09093D5088093D4081093D608B09357
:10365000D708A093D808F093D908E093DA0810921D
:10366000DE081092DD082093DF083093E0084093D5
:10367000E1085093E2087093DC086093DB0886EF62
:1036800097E09093E8088093E7088AE398E09093A6
:10369000EA088093E90885E391E09093EC08809331
:1036A000EB0884E391E09093EE088093ED0880E3CB
:1036B00091E09093F0088093EF0881E391E090937C
:1036C000F2088093F10886E391E09093F4088093E8
:1036D000F3081093F508B093F608A093F708F09359
:1036E000F808E093F9081F910895CF93DF93C0E0A5
:1036F000D0E006C0C60FD71F615070408040904098
:103700006115710581059105A9F78EE798E065EBD4
:1037100074E00E94DE16CE01DF91CF910895CF9321
:10372000DF93EB01892B39F58EE798E066EB74E0C7
:103730000E94E116F8948DE061E00E94FE138EE78E
:1037400098E0BE014AE050E00E94BF168DE060E0C4
:103750000E94B11460E472E48FE090E00E94751B57
:103760008DE061E00E94B11460E472E48FE090E0CB
:103770000E94751BE4CFDF91CF910895FC01758302
:103780006483718760875783468353874287158A8E
:10379000158614861786168621E0248B8FEF9FEFFF
:1037A000938B828B918B808B268B08952F923F92E7
:1037B0004F925F926F927F928F929F92AF92BF9241
:1037C000CF92DF92EF92FF920F931F93DF93CF93ED
:1037D000CDB7DEB72E970FB6F894DEBF0FBECDBFC4
:1037E0009E878D871B015E834D83A701260171E0B3
:1037F000C72ED12CC21AD30AC901880F991F662778
:103800007727681B790B7A8369836D807E800894A3
:103810006108710883E0882E912C8E0C9F1C790121
:1038200081E090E09C838B83AA24BB2410E0D80124
:10383000A170B070B887AF83FA013196FA87E98733
:10384000B801627070707C876B8777C0D7FC0AC044
:103850000894E108F10889819A8102969A83898304
:10386000C80ED91E0894A11CB11CAB81BC81129654
:10387000BC83AB83EF81F885EF2B41F1AD85BE852D
:10388000ED91FC911197B501620D731D4D815E8123
:103890004E195F099701220F331F89859A85280FDA
:1038A000391F0284F385E02DCD0182011995AD8584
:1038B000BE85ED91FC911197B701620D731D0284D5
:1038C000F385E02DCD01A30194011995EB85FC85CD
:1038D000EF2B41F1AD85BE85ED91FC911197B101C2
:1038E0006A197B094D815E814E195F099701220F8C
:1038F000331F89859A85280F391F0284F385E02DAF
:10390000CD0182011995AD85BE85ED91FC91119790
:10391000B1016E197F090284F385E02DCD01A30169
:1039200094011995EB81FC81CE0EDF1E089461088D
:10393000710862E070E0860E971EAE14BF040CF4AE
:1039400085CF2E960FB6F894DEBF0FBECDBFCF91B8
:10395000DF911F910F91FF90EF90DF90CF90BF907C
:10396000AF909F908F907F906F905F904F903F901F
:103970002F9008956F927F928F929F92AF92BF92F5
:10398000CF92DF92EF92FF920F931F937C014B0136
:103990003A0159016801DC01ED91FC91421B530B86
:1039A000220F331F2F5F3F4F0284F385E02D1995BF
:1039B000C701B401A301950103E0EE24FF240E9496
:1039C000D61B1F910F91FF90EF90DF90CF90BF908B
:1039D000AF909F908F907F906F9008952F923F921D
:1039E0004F925F926F927F928F929F92AF92BF920F
:1039F000CF92DF92EF92FF920F931F93DF93CF93BB
:103A000000D00F92CDB7DEB73C017C836B836A0197
:103A10005901FA82E982222433249801241B350BB0
:103A200037FF03C0309521953F4FC5014B815C8125
:103A3000841B950B97FF03C0909581959F4F82172C
:103A400093075CF481E0282E312CC601CB80DC800A
:103A50009C838B83C80185015C018B819C81A816A6
:103A6000B90644F4C501AB80BC809C838B83C8013C
:103A700086016C012501AB81BC814A1A5B0A780181
:103A8000EC18FD08F7FE04C0F094E194F108F394FB
:103A9000C016D10624F088248A94982C03C0B1E083
:103AA0008B2E912CC20162E070E00E94DF3D8B0101
:103AB00025C0D301ED91FC912114310441F0048023
:103AC000F581E02DC301B6014B815C8107C0048004
:103AD000F581E02DC3016B817C81A60129813A81AA
:103AE00019950E191F0917FF04C0C80CD91C040D25
:103AF000151DEB81FC813196FC83EB834B815C814E
:103B0000A416B506B4F60F900F900F900F90CF91BA
:103B1000DF911F910F91FF90EF90DF90CF90BF90BA
:103B2000AF909F908F907F906F905F904F903F905D
:103B30002F9008954F925F926F927F928F929F92F3
:103B4000AF92BF92CF92DF92EF92FF920F931F93AB
:103B50006C015B014A0139012801DC01ED91FC9106
:103B60000484F585E02D87011995D601ED91FC912E
:103B7000A40141505040440D551D0484F585E02DAD
:103B8000C601B50193011995D601ED91FC9102840E
:103B9000F385E02DC601B501A40192011995D60166
:103BA000ED91FC910894A108B108A60CB71C028401
:103BB000F385E02DC601B501A401920119951F916D
:103BC0000F91FF90EF90DF90CF90BF90AF909F90BC
:103BD0008F907F906F905F904F9008952F923F92BB
:103BE0004F925F926F927F928F929F92AF92BF920D
:103BF000CF92DF92EF92FF920F931F93DF93CF93B9
:103C0000CDB7DEB72F970FB6F894DEBF0FBECDBF8E
:103C10005C015E834D8318870F83FA86E986CB8625
:103C2000DC0118968D919C911997681779070CF013
:103C3000A4C01A968D919C911B97481759070CF0B8
:103C40009CC0EC2DF0E0FF87EE87CF01880F991F15
:103C5000880F991F8E0F9F1F860F971F1816190622
:103C60000CF08BC0CF01A3E0880F991FAA95E1F754
:103C7000840F951F181619060CF07FC085E0289F49
:103C8000A00111245A8349832B011B011C825C81F2
:103C9000553011F480E005C0E981FA81EC5FFD4FF9
:103CA00084912C863D866D807E8043011B82C82EC8
:103CB000DD2480FF1CC0D501ED91FC91BB85B130A6
:103CC00049F40480F581E02DC501B201A3012F81E3
:103CD000388522C00088F189E02DC5016C857D857D
:103CE000A4012E853F858901EF80F88423C0E985F2
:103CF000FA852F813885E217F307E9F0D501ED91B8
:103D0000FC91BB85B13051F40480F581E02DC501F3
:103D1000B201A30129853A8519950DC00088F18962
:103D2000E02DC5016C857D85A4012E853F85890127
:103D3000E984FA841995EB81EF5FEB832E853F854B
:103D4000820E931E0894611C711CE83021F0D594FA
:103D5000C7948C2DACCF3C813F5F3C834E855F8503
:103D6000240E351E0894411C511C89819A810196AC
:103D70009A838983363009F08ACF2F960FB6F8944C
:103D8000DEBF0FBECDBFCF91DF911F910F91FF908E
:103D9000EF90DF90CF90BF90AF909F908F907F90EB
:103DA0006F905F904F903F902F900895CF92EF9239
:103DB000FF920F931F93CF93DF93EC01262F6A306E
:103DC00061F42C8930E003E0220F331F0A95E1F7FC
:103DD0008E859F85820F931F37C06D30C9F16C852A
:103DE0007D854E855F8508891989EA88FB88CC889E
:103DF0000E94EE1D2C8986E0289FB00111248C853D
:103E00009D85680F791F7D876C878E89882301F1D6
:103E1000422F50E08AEF9FEF9C01429FC001439FD9
:103E2000900D529F900D112428853985820F931F84
:103E3000861797076CF413E0440F551F1A95E1F7A6
:103E40008E859F85840F951F9F878E871D861C8674
:103E500081E090E0DF91CF911F910F91FF90EF9063
:103E6000CF900895FC01758764875787468708952A
:103E7000FC01662309F461E0648B0895FC01718BF9
:103E8000608B738B628B0895FC01138212828AEB24
:103E900095E09183808360A341A322A381E0878B77
:103EA00014A213A20895DC0157968C91579788238A
:103EB00029F06EBD0DB407FEFDCF089530E840E057
:103EC00050E070E0832F90E0862397235896ED9181
:103ED000FC91599795962C919597892B21F080818B
:103EE000822B808304C080812095282320835A96CA
:103EF000ED91FC915B97808196969C919697892B8A
:103F000080835A96ED91FC915B97908196968C9167
:103F1000969780958923808336954F5F5F4F483011
:103F2000510581F608950F931F938C01DC015E9675
:103F3000ED91FC915F97908198968C9198978095E0
:103F4000892380835C96ED91FC915D979081979693
:103F50008C91809589238083C8010E94531FD801CA
:103F60005C96ED91FC915D97808197969C91892B51
:103F700080831F910F9108950F931F938C01DC0193
:103F80005E96ED91FC915F97808198969C919897B1
:103F9000892B80835C96ED91FC915D97908197963B
:103FA0008C91809589238083C8010E94531FD8017A
:103FB0005C96ED91FC915D97808197969C91892B01
:103FC00080831F910F910895CF92DF92EF92FF921D
:103FD0000F931F937C01162FC42ED22E6AE20E94EB
:103FE000931FC70160E00E94BC1FF70161A5610F2C
:103FF000C7010E94BC1FC70160E00E94BC1FF701FF
:1040000061A56D0DC7010E94BC1FC7016BE20E9434
:10401000931FC70160E00E94BC1FF70162A56C0DF1
:10402000C7010E94BC1FC70160E00E94BC1FF701CE
:1040300062A5600FC7010E94BC1FC7016CE20E940D
:10404000931F1F910F91FF90EF90DF90CF900895F5
:10405000EF92FF920F931F93CF93DF93EC017B01BD
:10406000288521500A85015060E040E00E94E41F4D
:10407000EE8DFF8D808198A5892B8083EC8DFD8D41
:1040800090818FA18095892380831A850EC0088531
:1040900009C0CE016F2D0E94531FCE016E2D0E94CC
:1040A000531F01500023A9F71150112381F7EC8D04
:1040B000FD8D80819FA1892B8083DF91CF911F91FE
:1040C0000F91FF90EF900895FF920F931F938C0133
:1040D000F62E672FDC015E96ED91FC915F97808153
:1040E00098969C919897892B80835C96ED91FC9192
:1040F0005D97908197968C91809589238083C801E4
:104100000E94531FC8016F2D0E94531FD8015C9657
:10411000ED91FC915D97808197969C91892B80838E
:104120001F910F91FF900895FF920F931F93CF93CC
:10413000DF93EC01F22E132F77FD2EC08885998531
:10414000681779074CF557FD27C08A859B85481766
:10415000590714F5262F2F5F042F0F5FCE010E9401
:10416000E41FEE8DFF8D808198A5892B8083EC8DD7
:10417000FD8D90818FA1809589238083CE01612F51
:104180000E94531FCE016F2D0E94531FEC8DFD8D99
:1041900080819FA1892B8083DF91CF911F910F9107
:1041A000FF900895DF92EF92FF920F931F93CF93AA
:1041B000DF93EC01FB017901D02E88859985681782
:1041C0007907D4F52A853B8542175307ACF5C7011B
:1041D000840F951F281739071CF47901E41AF50A92
:1041E000042F01500E0DCE016E2F2E2F0E94E41FC2
:1041F000EE8DFF8D808198A5892B8083EC8DFD8DC0
:1042000090818FA180958923808308C0CE01612F82
:104210000E94531FCE016D2D0E94531F0894E10888
:10422000F1088FEFE8168FEFF80681F7EC8DFD8D22
:1042300080819FA1892B8083DF91CF911F910F9166
:10424000FF90EF90DF900895DF92EF92FF920F932F
:104250001F93CF93DF93EC01FA017901D02E2885CB
:10426000398562177307D4F58A859B8548175907E6
:10427000ACF5C701860F971F281739071CF4790181
:10428000E61AF70A262F21502E0DCE014E2F0E2FA3
:104290000E94E41FEE8DFF8D808198A5892B80837D
:1042A000EC8DFD8D90818FA180958923808308C03E
:1042B000CE01612F0E94531FCE016D2D0E94531F0E
:1042C0000894E108F1088FEFE8168FEFF80681F700
:1042D000EC8DFD8D80819FA1892B8083DF91CF9113
:1042E0001F910F91FF90EF90DF900895AF92BF92D2
:1042F000CF92DF92EF92FF920F931F93CF93DF93B2
:104300006C015901E801DC0118962D913C91199737
:10431000621773070CF057C01A96ED91FC911B972A
:104320004E175F070CF04FC0C501860F971F281767
:1043300039071CF45901A61AB70ACE01840F951F3C
:10434000E817F9071CF4EF01C41BD50B262F2150E9
:104350002A0D042F01500C0FC6010E94E41FD60144
:104360005E96ED91FC915F97808198969C919897CD
:10437000892B80835C96ED91FC915D979081979657
:104380008C918095892380838E010EC0C6016F2D8C
:104390000E94531FC6016E2D0E94531F21971C16A9
:1043A0001D06A4F3015010401016110614F4E50187
:1043B000F6CFD6015C96ED91FC915D978081979642
:1043C0009C91892B8083DF91CF911F910F91FF905A
:1043D000EF90DF90CF90BF90AF9008951F93CF9351
:1043E000DF93EC01162F66E30E94931F13701D8B61
:1043F000113051F0113028F0123049F01330F1F43F
:1044000011C0CE0168EC05C0CE0168EA0DC0CE0136
:1044100068E00E94BC1F80E890E09987888780EA66
:1044200090E00AC0CE0168E60E94BC1F80EA90E0DE
:104430009987888780E890E09B878A87DF91CF9172
:104440001F910895662311F460E201C061E20E94A9
:10445000931F0895AF92BF92CF92DF92EF92FF9297
:104460000F931F93CF93DF935C01FB01EB01219628
:10447000D49031C08E010F5F1F4FFE016491C501C2
:104480000E94931F78010894E11CF11CF801C4906C
:104490000C2D0F77E701102F08C0FE012196E49143
:1044A000C5016E2F0E94BC1F11501123B1F7E70107
:1044B000C00FD11DC7FE0EC0FE018491682F70E0B1
:1044C0006F3F710511F464EF71E0219680E090E098
:1044D0000E943F11DA94DD2069F6DF91CF911F91A0
:1044E0000F91FF90EF90DF90CF90BF90AF90089525
:1044F0000F931F93CF93DF93EC018B0160E870E083
:1045000040EA50E00E94BE1B1AA619A689A161E0EC
:104510000E94FE1388A161E00E94FE13E8A12E2FE5
:1045200030E0F901EE5CFE4FE491F0E0EE0FFF1F8A
:10453000E250FF4F859194919D8F8C8F28583E4F6C
:10454000F90184918FA3E9A12E2F30E0F901EE5CEF
:10455000FE4FE491F0E0EE0FFF1FE250FF4F859118
:1045600094919F8F8E8F28583E4FF901849188A790
:104570008F89882361F00E94C93680E00E94B83696
:1045800081E00E94AA3680E00E94B3363DC08CA133
:1045900061E00E94FE138BA161E00E94FE13ECA17A
:1045A0008E2F90E0FC01EE5CFE4FE491F0E0EE0F08
:1045B000FF1FE250FF4FA591B491BB8FAA8F88587F
:1045C0009E4FFC0144914EA3EBA12E2F30E0F90148
:1045D000EE5CFE4FE491F0E0EE0FFF1FE250FF4F64
:1045E00085919491998F888F28583E4FF901849135
:1045F0008DA38C91409548234C93E88DF98D908143
:104600008DA1809589238083EC8DFD8D90818FA174
:104610008095892380838AA1882309F161E00E9423
:10462000FE138AA161E00E94B11464EF71E080E0A2
:1046300090E00E943F118AA160E00E94B11464EFF3
:1046400071E080E090E00E943F118AA161E00E9449
:10465000B11464EF71E080E090E00E943F11011519
:10466000110521F0CE01B8010E942A22DF91CF91DD
:104670001F910F9108951F93CF93DF93EC01162F95
:104680006FEF76E00E947822112351F4CE016AE3A5
:1046900077E00E942A2282E089A781E08AA705C0EC
:1046A000CE0167E477E00E942A22CE0164E577E03C
:1046B0000E942A22DF91CF911F91089582E090E01D
:1046C000A0E0B0E08093FA089093FB08A093FC0868
:1046D000B093FD081092110910921B0910921A094B
:1046E00082EE95E0909319098093180910921D09A4
:1046F00010923A0910923B0910923E09109240091B
:1047000008952F923F924F925F926F927F928F9275
:104710009F92AF92BF92CF92DF92EF92FF920F9350
:104720001F93DF93CF93CDB7DEB7C754D0400FB6FA
:10473000F894DEBF0FBECDBF582E492EFB013A01C3
:10474000190180A191A1998B888B22EE35E03F87DA
:104750002E8782A18A8B83A18B8B84A195A1A6A190
:10476000B7A18C8B9D8BAE8BBF8B80A591A5A2A58D
:10477000B3A5888F998FAA8FBB8F84A595A5A6A571
:10478000B7A58C8F9D8FAE8FBF8F80A988A381A97D
:1047900092A9A3A9B4A989A39AA3ABA3BCA385A9F1
:1047A00096A9A7A9B0AD8DA39EA3AFA3B8A781ADCD
:1047B00092AD9AA789A71EA61DA63CA72BA718AA4B
:1047C0007A018E01025F1F4F3BE2A32EB12CAC0E8B
:1047D000BD1E4E010894811C911C35C0D7018C91DF
:1047E0008F3221F40894E11CF11C2DC0422F4E1988
:1047F0004D3008F04CE0C42EDD24C401B701A60101
:104800000E94BD3AF401EC0DFD1D1082C5010E940D
:104810008928C501B801A40121E00E94D12D882377
:1048200051F4E52DF42D1382128282EE95E09183EE
:104830008083158266C0EC0CFD1CC8010E9489288B
:10484000C50158018C01C7016FE270E00E94B23AC5
:104850009C01009719F6E618F708F101F182E08251
:10486000E52DF42DD80112968D919C911397938389
:10487000828382EE95E09183808314968C911497C5
:10488000848315968C911597858316962D913D916D
:104890004D915C91199726833783408751871A96EB
:1048A0002D913D914D915C911D97228733874487CF
:1048B00055871E962D913D914D915C91519726877C
:1048C0003787408B518B52968C915297828B53969F
:1048D0002D913D914D915C915697238B348B458B57
:1048E000568B57962D913D914D915C915A97278B00
:1048F000308F418F528F5B968D919C915C97948FF6
:10490000838F852D942DC95BDF4F0FB6F894DEBFE2
:104910000FBECDBFCF91DF911F910F91FF90EF9010
:10492000DF90CF90BF90AF909F908F907F906F90CF
:104930005F904F903F902F9008959F92AF92BF92BB
:10494000CF92DF92EF92FF920F931F93DF93CF935B
:10495000CDB7DEB7C657D0400FB6F894DEBF0FBE56
:10496000CDBFC82E992E8A01D22E43E0A42EB12CA1
:10497000AC0EBD1EC501A8019E012F5F3F4F0E94D6
:104980008123E980FA80E00EF11EF701808142EE7A
:1049900055E02885882309F03FC08D819E819BA327
:1049A0008AA359A348A38F818CA32DA389859A85B7
:1049B000AB85BC858EA39FA3A8A7B9A78D859E852F
:1049C000AF85B8898AA79BA7ACA7BDA789899A8913
:1049D000AB89BC898EA79FA7A8ABB9AB8D898AABE1
:1049E0008E899F89A88DB98D8BAB9CABADABBEABCF
:1049F0008A8D9B8DAC8DBD8D8FAB98AFA9AFBAAFB3
:104A00008E8D9F8D9CAF8BAF8C2D992DBE01605EDE
:104A10007F4F48EC54E09FC0FE01FF961182108248
:104A20005EAF4DAFFE01EE5BFF4F10822223A9F077
:104A30002250CE01CD96223048F468E179E0A701FA
:104A40002D2D0E94D12D882381F407C0B501A70127
:104A50002D2D0E94D12D882329F48C2D992D0E9473
:104A6000F5257BC0C5010E948928F6E0DF2259F0B8
:104A7000FE01E05BFF4F4081518162817381CE0175
:104A8000CD960E9479279E01265A3F4FFE01FF9640
:104A900080819181F9019383828382EE95E09183F5
:104AA0008083FE01EF5BFF4F8081F9018483FE016B
:104AB000EE5BFF4F8081F9018583FE01ED5BFF4FC7
:104AC00080819181A281B381F90186839783A08738
:104AD000B187FE01E95BFF4F80819181A281B381A3
:104AE000F90182879387A487B587FE01E55BFF4FB5
:104AF00080819181A281B381F90186879787A08BFC
:104B0000B18BFE01E15BFF4F8081F901828BFE01D9
:104B1000E05BFF4F80819181A281B381F901838B9A
:104B2000948BA58BB68BFE01EC5AFF4F808191814F
:104B3000A281B381F901878B908FA18FB28FFE0183
:104B4000E85AFF4F80819181F901948F838F8C2DDA
:104B5000992DB901A7010E94FF268C2D992DCA58C5
:104B6000DF4F0FB6F894DEBF0FBECDBFCF91DF9100
:104B70001F910F91FF90EF90DF90CF90BF90AF907B
:104B80009F900895EF92FF920F931F93CF93DF931F
:104B9000EC01462F8C01055C1F4FC80161E00E94AB
:104BA00012318823D1F0FC2EED2ECE01B80141E068
:104BB0000E947F32882339F4CE01B80140E00E9480
:104BC0007F32882351F0CE014E966F2D7E2D0E94AC
:104BD000BF2A882319F081E001C080E0DF91CF91E6
:104BE0001F910F91FF90EF900895FC0113821282A4
:104BF00088EE93E0A0E0B0E084839583A683B7833A
:104C000082ED95E091838083128E118E1486089533
:104C1000FC0182ED95E0918380830895DF93CF932B
:104C20000F92CDB7DEB7FC016983A081B1811296E6
:104C30002D913C911397BE016F5F7F4F41E050E093
:104C4000F90119950F90CF91DF910895DC015996E4
:104C5000ED91FC915A97309719F420E030E018C09C
:104C6000238934894589568982859385A485B585AC
:104C7000281B390B4A0B5B0B2030B0E83B07B0E038
:104C80004B07B0E05B0720F02FEF3FE740E050E03C
:104C9000C9010895DC015996ED91FC915A9730971E
:104CA00011F480E008958581811181E00895CF930A
:104CB000DF93EC01898D9A8D009741F00E9489283D
:104CC000898D9A8D0E94D3381A8E198EDF91CF91DB
:104CD0000895FC01818D928D009711F480E0089574
:104CE0000E9479270895FC01818D928D009711F023
:104CF0000E943F280895FC01818D928D009719F440
:104D000020E030E003C00E9460299C01C9010895A1
:104D1000DF93CF930F92CDB7DEB7FC01818D928DDB
:104D2000009749F0BE016F5F7F4F41E050E00E9465
:104D30006029019719F02FEF3FEF03C08981282FD9
:104D400030E0C9010F90CF91DF910895EF92FF926B
:104D50000F931F93DF93CF930F92CDB7DEB77C01F4
:104D6000DC0159968D919C915A97009719F400E0B7
:104D700010E01FC0BE016F5F7F4F41E050E00E9416
:104D80006029019719F00FEF1FEF13C08981082FD9
:104D900010E0D7015996ED91FC915A9742855385C1
:104DA000648575854150504060407040CF010E943D
:104DB0007927C8010F90CF91DF911F910F91FF903C
:104DC000EF900895CF93DF93EC01E98DFA8D309742
:104DD00061F013821282CF010E94A52B9C01E98D04
:104DE000FA8D82819381892B31F081E090E09B8361
:104DF0008A8320E030E0C901DF91CF910895EF92DE
:104E0000FF920F931F93CF93DF93EC01F62EE72EC3
:104E10008A011B821A8288EE93E0A0E0B0E08C83C6
:104E20009D83AE83BF8382ED95E0998388838DE176
:104E300090E00E9436389A8F898F009791F0DC01BC
:104E40008F2D9E2D9C01F9018DE101900D928150D5
:104E5000E1F7CE010C96B8014CE050E00E94BD3A5B
:104E6000188EDF91CF911F910F91FF90EF900895D1
:104E7000CF93DF93EC01DB0180E090E020E2FD01C5
:104E8000E80FF91F208301968B309105C1F757E099
:104E900040E021C02E3219F086EE97E007C05A306C
:104EA00019F15AE048E017C03217F1F0FC01019601
:104EB00034913323C9F75417B8F02132A8F02F37B3
:104EC00098F4822F81568A3108F42052FD01E40FB4
:104ED000F11D20834F5F29912223E1F690E08C9110
:104EE000803219F091E001C090E0892FDF91CF91DD
:104EF00008956F927F928F929F92AF92BF92CF92BE
:104F0000DF92EF92FF920F931F93CF93DF93EC0109
:104F10007A018B012D81222309F480C08B899C8921
:104F2000AD89BE8984179507A607B70708F476C030
:104F300085C0E114F1040105110549F41E821F82A8
:104F4000188619861A861B861C861D8665C02A85CA
:104F50003B854C855D85EB8DFC8D858590E00996C4
:104F6000215030404040504039014A01082E04C0D1
:104F700096948794779467940A94D2F72F5F3F4F63
:104F80004F4F5F4F0894E108F108010911095701DB
:104F9000680104C0D694C794B794A7948A95D2F7B1
:104FA0000894E11CF11C011D111DA614B704C804CE
:104FB000D90428F0211531054105510549F48F899F
:104FC000988DA98DBA8D8E839F83A887B98716C0C7
:104FD000A618B708C808D90811C04E815F81688536
:104FE00079858B8D9C8D94010E9460340894A10872
:104FF000B108C108D108882331F410C086E0882E9A
:10500000912C8C0E9D1EA114B104C104D10429F76A
:10501000EA86FB860C871D8781E001C080E0DF9176
:10502000CF911F910F91FF90EF90DF90CF90BF90A5
:10503000AF909F908F907F906F900895223009F0ED
:1050400078CFE6CFCF93DF93EC01462F6E857F8537
:10505000888999890E944432882319F420E030E03D
:105060000AC08A89282F30E095E0220F331F9A95D5
:10507000E1F72B5B364FC901DF91CF9108950F9374
:105080001F93CF93DF938C01FC0185818823D9F195
:10509000848187FF35C0C80161E00E942228EC01AD
:1050A000009789F1F8018581823040F483899489E1
:1050B000A589B6898C8F9D8FAE8FBF8FF8018789A8
:1050C000908D9B8F8A8F8789908DA18DB28DCD0118
:1050D000AA27BB279D8B8C8BE0914309F091440953
:1050E000309751F0BE016A5E7F4FCE014896199508
:1050F000888D998D9B8B8A8BF80184818F7784832F
:105100000E94E53101C080E0DF91CF911F910F91A6
:105110000895CF93DF93EC010E943F28882311F07C
:105120001D8281E0DF91CF9108956F927F928F92DF
:105130009F92AF92BF92CF92DF92EF92FF920F9326
:105140001F93DF93CF9300D00F92CDB7DEB77C01D2
:105150005A016B01DC0115968C911597813009F08D
:105160008FC014968C9181FF8BC09EC00097A105C3
:10517000B10511F481E085C0F701628473848484F1
:105180009584C701B601A5010E947927882309F4F7
:1051900077C0D7015B968D919C915C97A114B10467
:1051A000C104D10489F457964D915D916D917C9124
:1051B0005A970E94D334882309F462C0F701178AF2
:1051C000108E118E128E3DC0D70116964D915D91B5
:1051D0006D917C9119979E012F5F3F4F0E94603423
:1051E000882309F44DC0D7015B96ED91FC915C9743
:1051F00049815A816B817C818789803129F088EFD0
:105200009FEFAFEFBFE004C088EF9FEFA0E0B0E0FA
:10521000481759076A077B07A0F4CF010E94D334CF
:10522000882371F1F7014681578160857185838DEF
:10523000948D0FEF1FEF2FEF3FE00E94C4338823C0
:10524000F9F0D7015396AD92BD92CD92DC9256976C
:1052500014968C911497806814968C93C7010E94C1
:105260003F28882369F0B601A5016A147B048C04E9
:105270009D0410F4B401A301C7010E94792701C065
:1052800080E00F900F900F900F90CF91DF911F91C2
:105290000F91FF90EF90DF90CF90BF90AF909F90D5
:1052A0008F907F906F900895F70183899489A589E5
:1052B000B68984179507A607B70708F057CFE0CF40
:1052C0002F923F924F925F926F927F928F929F9216
:1052D000AF92BF92CF92DF92EF92FF920F931F9304
:1052E000CF93DF93EC012A018D81882309F4C6C096
:1052F0008C8180FFC3C0D8C025014E185F084B01C8
:1053000076E0272E312C2C0E3D1E3201B1C02A85AD
:105310003B854C855D856FEFA62E61E0B62EA222FF
:10532000B3228D8179018A0199E016950795F7944A
:10533000E7949A95D1F7EB8DFC8D823049F4428D3C
:10534000538D648D758D4E0D5F1D601F711F3FC0A5
:10535000D480DA94DE20A114B104D9F4DD20C9F49C
:10536000211531054105510549F48F89988DA98D85
:10537000BA8D8E839F83A887B9870BC04E815F81CA
:1053800068857985CF0191010E946034882309F4F2
:1053900075C0EB8DFC8D4E815F81688579854250AB
:1053A000504060407040058404C0440F551F661F84
:1053B000771F0A94D2F786859785A089B189480F0F
:1053C000591F6A1F7B1F4D0D511D611D711D80E00E
:1053D00092E08A199B0963018615970508F46C0110
:1053E0008C8186FD06C080E0C81682E0D80609F0F0
:1053F00073C080919E0590919F05A091A005B091EA
:10540000A105481759076A077B0709F465C0809111
:10541000450B9091460B9501860174010E94653001
:10542000882361F18C0C9D1C12C095012B5B364FBB
:10543000A9014C0D5D1DD401F90102C081918D932C
:10544000E417F507D9F7E21BF30B8E0E9F1E9601AA
:1054500040E050E08A859B85AC85BD85820F931F17
:10546000A41FB51F8A879B87AC87BD876C187D08F2
:105470006114710409F04BCFA20102C04FEF5FEF3E
:10548000CA01DF91CF911F910F91FF90EF90DF90B4
:10549000CF90BF90AF909F908F907F906F905F90D4
:1054A0004F903F902F900895AB88BC88CD88DE88C0
:1054B000EA84FB840C851D859A0140E050E0D6010A
:1054C000C5018E199F09A00BB10B82179307A40782
:1054D000B50708F411CF13CFCB01BA0140E00E9409
:1054E0004432882309F0A1CFC9CFCF92DF92EF9247
:1054F000FF920F931F93DF93CF930F92CDB7DEB739
:105500006C01FC018581823070F0E284F3840485B3
:105510001585C601BE016F5F7F4F41E050E00E94DC
:105520006029019769F020E030E0C9010F90CF9128
:10553000DF911F910F91FF90EF90DF90CF90089532
:10554000F60182859385A485B5854F96A11DB11D71
:1055500082879387A487B587F5E016950795F7941A
:10556000E794FA95D1F78E2D8F70282F30E0E5E083
:10557000220F331FEA95E1F72B5B364FD6CF0F93FF
:105580001F93CF93DF93EC018B018D81882309F06A
:1055900041C0FB0187898031B1F482E08D831F8A8D
:1055A000188E198E1A8E808D918DA0E0B0E045E0A6
:1055B000880F991FAA1FBB1F4A95D1F78B8B9C8B15
:1055C000AD8BBE8B15C0803229F583E08D83FB0146
:1055D000428D538D648D758D4F8B588F698F7A8F67
:1055E0009E012D5E3F4FC8010E942C35882391F00B
:1055F0001C8F0B8F81E08C831E821F821886198678
:105600001A861B861C861D861E861F86188A198A86
:105610001A8A01C080E0DF91CF911F910F91089508
:105620001F93CF93DF93EC01142FE62FF0E075E08A
:10563000EE0FFF1F7A95E1F7EB5BF64F83858171E3
:1056400021F0842F827409F054C06A8B80919E05EA
:1056500090919F05A091A005B091A1058E879F878D
:10566000A88BB98B84899589A0E0B0E0BC0155274F
:105670004427828D938DA0E0B0E0482B592B6A2BF4
:105680007B2B4F8B588F698F7A8F838590E0887141
:105690009070009751F4848D958DA68DB78D8B8B6E
:1056A0009C8BAD8BBE8B81E00CC0409711F59E01A9
:1056B0002D5E3F4F8B8D9C8D0E942C358823C9F029
:1056C00084E08D83812F8F708C831E821F821886C9
:1056D00019861A861B861C861D8616FD02C081E06F
:1056E00009C0CE0140E050E060E070E00E949528E3
:1056F00001C080E0DF91CF911F910895CF93DF9398
:10570000EC019C012A5F3F4F8B8D9C8D41E050E066
:1057100060E070E00E949B358823A1F08F89988D0E
:10572000A98DBA8D0097A105B10559F48E819F818D
:10573000A885B9858F8B988FA98FBA8F8C81806847
:105740008C8381E0DF91CF9108952F923F924F9209
:105750005F927F928F929F92AF92BF92CF92DF9291
:10576000EF92FF920F931F93DF93CF9300D000D05F
:10577000CDB7DEB76C01162F072F5E834D83DC019A
:1057800015968C911597813009F070C114968C9103
:1057900081FF6CC18EC1F601438954896589768980
:1057A00082859385A485B58584179507A607B707D5
:1057B00031F0C6010E947927882309F457C1812F4F
:1057C000902F9C0129012D803E8017C1D6015B9648
:1057D000ED91FC915C97DA01C90119E0B695A795A6
:1057E000979587951A95D1F774807A9478227FEFF0
:1057F000872E71E0972E82229322772009F04EC0E7
:105800008114910409F04AC0D60116964D915D911C
:105810006D917C911997411551056105710581F4D0
:1058200057968D919D910D90BC91A02D0097A1054B
:10583000B10549F1F60186839783A087B1872EC011
:10584000CF019E012F5F3F4F0E946034882309F4EF
:1058500014C129813A814B815C81D6015B96ED911F
:10586000FC915C978789803129F088EF9FEFAFEF3B
:10587000BFE004C088EF9FEFA0E0B0E02817390731
:105880004A075B0730F0C6010E947E2B882331F463
:10589000EDC0F601268337834087518780E092E090
:1058A0008819990951018215930508F45C01D60104
:1058B0005B96ED91FC915C971696ED90FD900D91A5
:1058C0001C9119978EEF9FEFAFEFBFEFE80EF91E17
:1058D0000A1F1B1F058404C0EE0CFF1C001F111FB4
:1058E0000A94D2F786859785A089B189E80EF91EBA
:1058F0000A1F1B1FE70CF11C011D111D90E0A916CA
:1059000092E0B90651F580919E0590919F05A09176
:10591000A005B091A1058E159F05A007B10761F400
:105920008FEF9FEFAFEFBFEF80939E0590939F05A2
:10593000A093A005B093A1058091450B9091460BD3
:10594000B801A70192010E940830882309F48EC093
:10595000A0E0B2E04A0E5B1E3EC08114910409F53E
:10596000F601228533854485558583899489A589E7
:10597000B689281739074A075B0798F00E94E53176
:10598000882309F473C0E0929E05F0929F0500936E
:10599000A0051093A1058091470B81608093470B70
:1059A00008C0C801B70141E00E944432882309F4CD
:1059B0005DC094012B5B364FA9014A0D5B1DD201DE
:1059C000F90102C08D918193E417F507D9F7E21B25
:1059D000F30B4E0E5F1E2A183B08950140E050E085
:1059E000F60182859385A485B585820F931FA41F38
:1059F000B51F82879387A487B587D6011A962D9104
:105A00003D914D915C911D972114310409F0DECE3A
:105A100053968D919D910D90BC91A02D8217930767
:105A2000A407B50748F4F601238B348B458B568BBE
:105A300084818068848311C08091430990914409D6
:105A4000892B59F08D819E81892B39F0D6011496CE
:105A50008C911497806814968C93F601848183FF4F
:105A60000EC0C6010E943F28882349F481E090E0DF
:105A7000D60113969C938E9312971E821D828D8160
:105A80009E8126960FB6F894DEBF0FBECDBFCF9194
:105A9000DF911F910F91FF90EF90DF90CF90BF901B
:105AA000AF909F908F907F905F904F903F902F90FE
:105AB000089582FD70CE83CEDF93CF930F92CDB742
:105AC000DEB76983BE016F5F7F4F41E050E00E9407
:105AD000A52B0F90CF91DF910895DF92EF92FF9267
